{
    "contractName": "MarksManagmtSys",
    "abi": [
        {
            "inputs": [],
            "stateMutability": "nonpayable",
            "type": "constructor"
        },
        {
            "stateMutability": "nonpayable",
            "type": "fallback"
        },
        {
            "inputs": [
                {
                    "internalType": "int256",
                    "name": "_ID",
                    "type": "int256"
                },
                {
                    "internalType": "string",
                    "name": "_fName",
                    "type": "string"
                },
                {
                    "internalType": "string",
                    "name": "_lName",
                    "type": "string"
                },
                {
                    "internalType": "int256",
                    "name": "_marks",
                    "type": "int256"
                }
            ],
            "name": "addNewRecords",
            "outputs": [],
            "stateMutability": "nonpayable",
            "type": "function"
        },
        {
            "inputs": [],
            "name": "stdCount",
            "outputs": [
                {
                    "internalType": "int256",
                    "name": "",
                    "type": "int256"
                }
            ],
            "stateMutability": "view",
            "type": "function"
        },
        {
            "inputs": [
                {
                    "internalType": "int256",
                    "name": "",
                    "type": "int256"
                }
            ],
            "name": "stdRecords",
            "outputs": [
                {
                    "internalType": "int256",
                    "name": "ID",
                    "type": "int256"
                },
                {
                    "internalType": "string",
                    "name": "fName",
                    "type": "string"
                },
                {
                    "internalType": "string",
                    "name": "lName",
                    "type": "string"
                },
                {
                    "internalType": "int256",
                    "name": "marks",
                    "type": "int256"
                }
            ],
            "stateMutability": "view",
            "type": "function"
        }
    ],
    "bytecode": "6080604052600060015534801561001557600080fd5b50600080546001600160a01b031916331790556105d2806100376000396000f3fe608060405234801561001057600080fd5b50600436106100415760003560e01c80639e676bcf14610043578063cd9f839814610056578063fe615f2a14610082575b005b61004161005136600461030c565b610099565b610069610064366004610381565b610130565b60405161007994939291906103e0565b60405180910390f35b61008b60015481565b604051908152602001610079565b6000546001600160a01b031633146100b057600080fd5b600180546100bd9161041d565b6001818155604080516080810182528781526020808201888152828401889052606083018790526000958652600290915291909320835181559051909182019061010790826104dc565b506040820151600282019061011c90826104dc565b506060820151816003015590505050505050565b6002602052600090815260409020805460018201805491929161015290610453565b80601f016020809104026020016040519081016040528092919081815260200182805461017e90610453565b80156101cb5780601f106101a0576101008083540402835291602001916101cb565b820191906000526020600020905b8154815290600101906020018083116101ae57829003601f168201915b5050505050908060020180546101e090610453565b80601f016020809104026020016040519081016040528092919081815260200182805461020c90610453565b80156102595780601f1061022e57610100808354040283529160200191610259565b820191906000526020600020905b81548152906001019060200180831161023c57829003601f168201915b5050505050908060030154905084565b634e487b7160e01b600052604160045260246000fd5b600082601f83011261029057600080fd5b813567ffffffffffffffff808211156102ab576102ab610269565b604051601f8301601f19908116603f011681019082821181831017156102d3576102d3610269565b816040528381528660208588010111156102ec57600080fd5b836020870160208301376000602085830101528094505050505092915050565b6000806000806080858703121561032257600080fd5b84359350602085013567ffffffffffffffff8082111561034157600080fd5b61034d8883890161027f565b9450604087013591508082111561036357600080fd5b506103708782880161027f565b949793965093946060013593505050565b60006020828403121561039357600080fd5b5035919050565b6000815180845260005b818110156103c0576020818501810151868301820152016103a4565b506000602082860101526020601f19601f83011685010191505092915050565b8481526080602082015260006103f9608083018661039a565b828103604084015261040b818661039a565b91505082606083015295945050505050565b808201828112600083128015821682158216171561044b57634e487b7160e01b600052601160045260246000fd5b505092915050565b600181811c9082168061046757607f821691505b60208210810361048757634e487b7160e01b600052602260045260246000fd5b50919050565b601f8211156104d757600081815260208120601f850160051c810160208610156104b45750805b601f850160051c820191505b818110156104d3578281556001016104c0565b5050505b505050565b815167ffffffffffffffff8111156104f6576104f6610269565b61050a816105048454610453565b8461048d565b602080601f83116001811461053f57600084156105275750858301515b600019600386901b1c1916600185901b1785556104d3565b600085815260208120601f198616915b8281101561056e5788860151825594840194600190910190840161054f565b508582101561058c5787850151600019600388901b60f8161c191681555b5050505050600190811b0190555056fea2646970667358221220d77773c038ea56f86dcc1b5dcb1bdbd9c8b614a868e7e7e4273f520ae375123464736f6c63430008110033",
    "sourcePath": "d:/BE-1/Sem-7/LP-3/Blockchain Assignments/bt3.sol",
    "compiler": {
        "name": "solc",
        "version": "0.8.17+commit.8df45f5f"
    },
    "functionHashes": {
        "addNewRecords(int256,string,string,int256)": "9e676bcf",
        "stdCount()": "fe615f2a",
        "stdRecords(int256)": "cd9f8398"
    },
    "gasEstimates": {
        "creation": {
            "codeDepositCost": "298000",
            "executionCost": "29578",
            "totalCost": "327578"
        },
        "external": {
            "": "142",
            "addNewRecords(int256,string,string,int256)": "infinite",
            "stdCount()": "2317",
            "stdRecords(int256)": "infinite"
        }
    }
}